:020000040800F2
:1000000000500020C90E0008FD020008FF02000891
:1000100001030008030300080503000800000000B6
:1000200000000000000000000000000007030008BE
:1000300009030008000000000B0300080D0300087E
:10004000110F0008110F0008110F0008110F000810
:10005000110F0008110F0008110F0008110F000800
:10006000110F0008110F0008110F0008110F0008F0
:10007000110F0008110F0008110F0008110F0008E0
:10008000110F0008110F0008110F0008110F0008D0
:10009000110F0008110F0008110F0008110F0008C0
:1000A000110F0008110F0008110F0008110F0008B0
:1000B000110F0008110F0008110F0008110F0008A0
:1000C000110F0008110F0008110F0008110F000890
:1000D000110F0008110F0008110F0008110F000880
:1000E00015030008110F0008110F000800000000A0
:1000F0000000000000000000000000000000000000
:0C01000000000000000000005FF808F1A3
:10010C000348044B834202D0034B03B1184770479A
:10011C000C0000200C000020000000000548064BDD
:10012C001B1AD90F01EBA301491002D0034B03B1E9
:10013C00184770470C0000200C0000200000000045
:10014C0010B5064C237843B9FFF7DAFF044B13B113
:10015C000448AFF300800123237010BD0C00002075
:10016C00000000006C0F000808B5054B1BB10549D9
:10017C000548AFF30080BDE80840FFF7CFBF00BFD4
:10018C0000000000100000206C0F000870B588B053
:10019C0004AD00240494059406940794254B9A69A5
:1001AC0042F010029A619A6902F010020092009AD1
:1001BC009A6942F020029A619A6902F02002019237
:1001CC00019A9A6942F004029A619A6902F0040257
:1001DC000292029A9A6942F008029A619B6903F0B2
:1001EC0008030393039B144E22464FF49071304640
:1001FC0000F0D4FD4FF400530493104B0593069478
:10020C0029460F4800F0C0FC4FF49073049301236F
:10021C0005930694022307932946304600F0B4FC5C
:10022C0022462146282000F015FE282000F022FE50
:10023C0008B070BD00100240000801400000111011
:10024C000010014072B6FEE708B50A480A4B03607D
:10025C004FF4E133436000238360C36003610C22DD
:10026C0042618361C36100F0F1F800B908BDFFF78A
:10027C00E9FF00BF280000200044004010B590B0FA
:10028C0006AC28220021204600F03DFE00230193FD
:10029C0002930393049305930223069301220A927B
:1002AC0010220B920D934FF460130F93204600F025
:1002BC005DF978B90F230193022102910023039376
:1002CC004FF480620492059301A800F081FB18B9E9
:1002DC0010B010BDFFF7B6FFFFF7B4FF08B500F084
:1002EC000BF9FFF7CBFFFFF751FFFFF7ADFFFEE771
:1002FC00FEE7FEE7FEE7FEE7FEE770477047704754
:10030C0008B500F00BF908BD08B54FF4005000F02B
:10031C004DFD08BD82B00E4B9A6942F001029A6104
:10032C009A6902F001020092009ADA6942F0805256
:10033C00DA61DB6903F080530193019B054A536832
:10034C0023F0E06343F00073536002B0704700BFCA
:10035C00001002400000014000B587B0002302935A
:10036C000393049305930268114B9A4202D007B091
:10037C005DF804FB03F5E633DA6942F40032DA6126
:10038C00DA6902F400320092009A9A6942F004028F
:10039C009A619B6903F004030193019B0C23029364
:1003AC0002230393059302A9024800F0EDFBDEE75C
:1003BC00004400400008014010B50446026813696F
:1003CC0023F44053C1680B431361836802691343E0
:1003DC0042691A430168CB6823F4B05323F00C0331
:1003EC001343CB600268536923F4407381690B4358
:1003FC0053610268134B9A4220D000F0A5FB0246D1
:10040C0002EB820202EB820263689B00B2FBF3F206
:10041C000D48A0FB02314909642303FB11231B0186
:10042C003233A0FB03035B0903F0F00202EB011271
:10043C0003F00F03216813448B6010BD00F094FB94
:10044C000246DDE7003801401F85EB5160B310B563
:10045C00044690F8413013B3242384F841302268C9
:10046C00D36823F40053D3602046FFF7A5FF22681E
:10047C00136923F4904313612268536923F02A0310
:10048C0053612268D36843F40053D3600020606446
:10049C00202384F8413084F84230606310BD80F82A
:1004AC004030FFF759FFD7E70120704710B50446DD
:1004BC000E4B1A784FF47A73B3FBF2F30C4A1068B4
:1004CC00B0FBF3F000F0E4FC68B90F2C01D901206B
:1004DC000AE0002221464FF0FF3000F0BBFC054B38
:1004EC001C60002000E0012010BD00BF00000020B7
:1004FC00080000200400002008B5074A136843F0E8
:10050C0010031360032000F093FC0020FFF7CEFFD4
:10051C00FFF700FF002008BD00200240034A1168CD
:10052C00034B1B780B441360704700BF7000002016
:10053C0000000020014B1868704700BF70000020BD
:10054C0082B0084B1B68084AA2FB03235B0A00FB22
:10055C0003F3019300BF019B5A1E0192002BF9D1AA
:10056C0002B0704708000020D34D6210002800F044
:10057C00F18170B582B00446036813F0010F2CD0E2
:10058C00994B5B6803F00C03042B1DD0964B5B68F6
:10059C0003F00C03082B12D06368B3F5803F41D0F5
:1005AC00002B55D103F1804303F504331A6822F470
:1005BC0080321A601A6822F480221A6037E08A4B63
:1005CC005B6813F4803FE7D0874B1B6813F4003F44
:1005DC0003D06368002B00F0BF81236813F0020F77
:1005EC0075D0814B5B6813F00C0F5FD07E4B5B6852
:1005FC0003F00C03082B54D02369002B00F08A80E5
:10060C007A4B01221A60FFF795FF0546764B1B6863
:10061C0013F0020F75D1FFF78DFF401B0228F5D99F
:10062C0003209EE1704A136843F4803313606368BF
:10063C0043B3FFF77FFF05466B4B1B6813F4003F7A
:10064C00CBD1FFF777FF401B6428F5D9032088E155
:10065C00B3F5A02F09D0644B1A6822F480321A60CB
:10066C001A6822F480221A60E1E703F18043A3F5B3
:10067C003C331A6842F480221A601A6842F48032C1
:10068C001A60D4E7FFF756FF0546574B1B6813F467
:10069C00003FA2D0FFF74EFF401B6428F5D9032082
:1006AC005FE1514B5B6813F4803FA5D14E4B1B6847
:1006BC0013F0020F03D02369012B40F04F814A4AFB
:1006CC00136823F0F803616943EAC10313602368DC
:1006DC0013F0080F33D0A369002B5CD0434B0122DD
:1006EC00C3F88024FFF726FF05463F4B5B6A13F0E7
:1006FC00020F21D1FFF71EFF401B0228F5D9032062
:10070C002FE1394A136823F0F803616943EAC10306
:10071C001360DCE7354B00221A60FFF70BFF054630
:10072C00314B1B6813F0020FD1D0FFF703FF401BB6
:10073C000228F5D9032014E10120FFF701FF2368FB
:10074C0013F0040F00F09680274BDB6913F0805FE9
:10075C0034D1254BDA6942F08052DA61DB6903F05F
:10076C0080530193019B0125214B1B6813F4807F5F
:10077C0026D0E368012B3DD0002B53D103F18043ED
:10078C0003F504331A6A22F001021A621A6A22F083
:10079C0004021A6233E0154B0022C3F88024FFF7E1
:1007AC00C9FE0546104B5B6A13F0020FC7D0FFF76A
:1007BC00C1FE401B0228F5D90320D2E00025D3E767
:1007CC000B4A136843F480731360FFF7B3FE0646BD
:1007DC00074B1B6813F4807FCBD1FFF7ABFE801B5C
:1007EC006428F5D90320BCE000100240000042420E
:1007FC00007000405F4A136A43F001031362E36820
:10080C0033B3FFF797FE06465A4B1B6A13F0020FE1
:10081C002FD1FFF78FFE801B41F288339842F3D91A
:10082C0003209EE0052B09D0524B1A6A22F00102DC
:10083C001A621A6A22F004021A62E0E74D4B1A6A35
:10084C0042F004021A621A6A42F001021A62D6E7F6
:10085C00FFF770FE0646474B1B6A13F0020F08D0D9
:10086C00FFF768FE801B41F288339842F3D90320CE
:10087C0077E0E5B9E369002B72D03E4A526802F08A
:10088C000C02082A56D0022B17D03B4B00221A66BA
:10089C00FFF750FE0446374B1B6813F0007F47D020
:1008AC00FFF748FE001B0228F5D9032059E0314A16
:1008BC00D36923F08053D361DCE72F4B00221A66F7
:1008CC00FFF738FE05462B4B1B6813F0007F06D054
:1008DC00FFF730FE401B0228F5D9032041E0236AC4
:1008EC00B3F5803F1AD023494B6823F47413226A62
:1008FC00606A024313434B601F4B01221A66FFF7D9
:10090C0019FE04461B4B1B6813F0007F0ED1FFF73A
:10091C0011FE001B0228F5D9032022E0154A53686A
:10092C0023F40033A1680B435360DCE7002018E08C
:10093C00002016E0012B16D00E4B5B6803F48031BF
:10094C00226A914211D103F47013626A93420ED160
:10095C00002006E001207047012002E0012000E0A9
:10096C00002002B070BD0120FBE70120F9E7012057
:10097C00F7E700BF00100240000042420F4B5B68DB
:10098C0003F00C02082A01D00D487047C3F38342D0
:10099C000C49885C13F4803F0BD0084B5B68C3F3A5
:1009AC004043094AD35C064A02FB00F0B0FBF3F06B
:1009BC007047064B03FB00F0704700BF001002406D
:1009CC0000127A00880F0008840F000800093D000F
:1009DC00002800F0A08070B50D460446524B1B68F1
:1009EC0003F007038B420BD24F4A136823F0070323
:1009FC000B431360136803F007038B4240F08D80A8
:100A0C00236813F0020F17D013F0040F04D0474AD9
:100A1C00536843F4E0635360236813F0080F04D069
:100A2C00424A536843F460535360404A536823F07E
:100A3C00F003A1680B435360236813F0010F31D00E
:100A4C006368012B20D0022B25D0384A126812F093
:100A5C00020F64D035494A6822F0030213434B60FD
:100A6C00FFF768FD0646314B5B6803F00C036268C8
:100A7C00B3EB820F16D0FFF75DFD801B41F288337C
:100A8C009842F0D9032045E0284A126812F4003F3E
:100A9C00E0D101203EE0254A126812F0007FD9D146
:100AAC00012037E0204B1B6803F00703AB420AD947
:100ABC001D4A136823F007032B431360136803F0DC
:100ACC000703AB422DD1236813F0040F06D0174A4D
:100ADC00536823F4E063E1680B435360236813F01D
:100AEC00080F07D0114A536823F46053216943EA75
:100AFC00C1035360FFF742FF0C4B5B68C3F3031356
:100B0C000B4AD35CD8400B4B18600B4B1868FFF7A3
:100B1C00CDFC002070BD012070470120FAE70120B8
:100B2C00F8E70120F6E700BF002002400010024069
:100B3C00A00F00080800002004000020014B1868DA
:100B4C00704700BF0800002008B5FFF7F7FF044B03
:100B5C005B68C3F30223034AD35CD84008BD00BFD3
:100B6C0000100240980F000808B5FFF7E7FF044B90
:100B7C005B68C3F3C223034AD35CD84008BD00BFF3
:100B8C0000100240980F000870B582B00024A446F3
:100B9C009EE07C4DAB4214D00CD8A5F58015AB4231
:100BAC000FD005F57025AB420BD0A5F58015AB42E7
:100BBC001FD106E0744DAB4203D005F58035AB4236
:100BCC0017D18B68A3B1012B0DD04261082410E022
:100BDC00CC680EE0CC6804340BE0CC68083408E038
:100BEC00CC680C3405E00261082402E0002400E02B
:100BFC000424BEF1FF0F37D806464FEA8C02336847
:100C0C000F25954023EA050304FA02F213433360DF
:100C1C004B6813F0805F59D05C4B9A6942F001022B
:100C2C009A619B6903F001030193019B4FEA9C02BB
:100C3C00951C574B53F825600CF00305AD000F23A2
:100C4C00AB4026EA0306534B984214D003F580635D
:100C5C00984279D003F58063984277D003F580638E
:100C6C00984206D0042307E0061DACF1080292005E
:100C7C00C5E7032300E00023AB4033430232444D6D
:100C8C0045F822304B6813F4801F61D0424A9368B8
:100C9C0043EA0E0393604B6813F4001F5ED03E4A88
:100CAC00D36843EA0E03D3604B6813F4003F5BD068
:100CBC00394A536843EA0E0353604B6813F4803F80
:100CCC0058D0354A136843EA0E0313600CF1010C3B
:100CDC000B6833FA0CF253D0012202FA0CF203EA3D
:100CEC00020E32EA0303F1D14B68122B3FF651AFDF
:100CFC00122B3FF67EAF01A555F823F0CF0B000861
:100D0C00DD0B0008E70B0008F90B0008FF0B0008CF
:100D1C00FF0B0008FF0B0008FF0B0008FF0B00087F
:100D2C00FF0B0008FF0B0008FF0B0008FF0B00086F
:100D3C00FF0B0008FF0B0008FF0B0008FF0B00085F
:100D4C00E10B0008ED0B0008012395E7022393E764
:100D5C00114A936823EA0E0393609CE70E4AD3680A
:100D6C0023EA0E03D3609FE70B4A536823EA0E0372
:100D7C005360A2E7084A136823EA0E031360A5E741
:100D8C0002B070BD000022100000311000100240B3
:100D9C000000014000080140000401400AB101615B
:100DAC0070470904016170477047000008B5054B96
:100DBC005B69034200D108BD024B5861FFF7F4FF99
:100DCC00F9E700BF00040140002808DB0901C9B2A3
:100DDC0000F1604000F5614080F80013704700F0AE
:100DEC000F000901C9B2014B1954704714ED00E012
:100DFC0000B500F00700C0F1070CBCF1040F28BFD0
:100E0C004FF0040C031D062B0FD9C31E4FF0FF3EF1
:100E1C000EFA0CF021EA000199400EFA03FE22EAC8
:100E2C000E0241EA02005DF804FB0023EEE700002D
:100E3C00074AD36823F4E0631B041B0C000200F484
:100E4C00E060034343F0BF6343F40033D360704767
:100E5C0000ED00E010B50446054BD868C0F3022045
:100E6C00FFF7C6FF01462046FFF7AEFF10BD00BFDF
:100E7C0000ED00E0002807DB00F01F024009012311
:100E8C009340024A42F82030704700BF00E100E076
:100E9C000138B0F1807F0BD24FF0E0235861054A46
:100EAC00F02182F823100020986107221A61704704
:100EBC000120704700ED00E070470000FFF7FCFFD9
:100ECC000B480C490C4A002302E0D458C45004339C
:100EDC00C4188C42F9D3094A094C002301E0136071
:100EEC000432A242FBD300F017F8FFF7F7F9704772
:100EFC00000000200C000020B80F00080C0000209F
:100F0C0074000020FEE703460244934200D1704770
:100F1C0003F8011BF9E7000070B500260C4D0D4BD2
:100F2C005B1B9C10A64209D1002600F019F80A4D53
:100F3C000A4B5B1B9C10A64205D170BD55F8043BB7
:100F4C0098470136EEE755F8043B98470136F2E72F
:100F5C00B00F0008B00F0008B00F0008B40F000865
:100F6C00F8B500BFF8BC08BC9E467047F8B500BF8A
:080F7C00F8BC08BC9E4670475A
:100F84000102000002030405060708090A0B0C0D00
:100F94000E0F101000000000010203040000000006
:0C0FA40000000000010203040607080919
:040FB00075010008BF
:040FB4004D010008E3
:0C0FB800010000001000000000127A0090
:0400000508000EC918
:00000001FF
